:020000040000FA
:0600000039EF02F01200CE
:020006000000F8
:08000800060EF66E000EF76E05
:10001000000EF86E04010900F550066F0900F55056
:10002000076F03E1066701D03DD00900F550016F6D
:100030000900F550026F0900F550036F090009002F
:10004000F550E96E0900F550EA6E09000900090053
:10005000F550046F0900F550056F09000900F6CF4F
:1000600008F4F7CF09F4F8CF0AF401C4F6FF02C48C
:10007000F7FF03C4F8FF0401045302E1055307E04E
:100080000900F550EE6E0407F8E20507F9D708C439
:10009000F6FF09C4F7FF0AC4F8FF04010607000EC3
:0600A000075BBFD7120050
:0A00A600D9CFE6FFE1CFD9FFF00E3D
:1000B00083169516959C959A95988C9C8C9A8C98FD
:1000C000A6EC00F0300E33D8050EE66EFCEC01F025
:1000D000E552300E2CD8010EE66EFCEC01F0E55234
:1000E000320E25D829D8FEE127D8FEE1FE0EDBCF5F
:1000F000E6FF52EC01F0E5521FD8FEE1080E17D8DA
:100100001BD8FEE10F0E13D817D8FEE1010E0FD851
:1001100013D8FEE1040E0BD80FD8FEE1800EE66E78
:10012000E5EC00F0E552E552E7CFD9FF1200E66EAC
:1001300052EC01F0E552120013EC02F0000912003B
:10014000060EE66E55EC02F0E5521200F00EE66E79
:1001500047EC02F0E5521200F60EE66E47EC02F0B4
:10016000E5521200836A956A280EE66E53EC00F0A1
:10017000E55213EC02F0000901E0FBD7E66AE5EC7A
:1001800000F0E552060EE66E52EC01F0E55213EC7B
:1001900002F0000901E0FBD70F0EE66E52EC01F011
:1001A000E55213EC02F0000901E0FBD7C00EE66E49
:1001B000040EE66EB9EC01F0E552E55213EC02F0E4
:0A01C000000901E0FBD70300120064
:0601CA00D9CFE6FFE1CFF2
:1001D000D9FFF00E95168316FE0EDB508009E83825
:1001E0000F0B0F0B83128C9C8C9A0DD8F00E83167C
:1001F000FE0EDB500F0B831206D80F0E9512E55240
:10020000E7CFD9FF1200A0EC00F08C88A0EC00F042
:040210008C981200B4
:0C021400D9CFE6FFE1CFD9FFF00E951620
:100220008316FE0EDB504009E8380F0B0F0B8312CC
:100230008C9C8C9A0DD8F00E8316FE0EDB500F0BA3
:10024000831206D80F0E9512E552E7CFD9FF1200A0
:0E025000A0EC00F08C88A0EC00F08C9812005E
:02025E00D9CFF6
:10026000E6FFE1CFD9FFF00E95168316FE0EDB38C0
:100270000F0B0F0B83128C8A8C9C0DD8F00E8316FB
:10028000FE0EDB500F0B831206D80F0E9512E552AF
:10029000E7CFD9FF1200A0EC00F08C88A0EC00F0B2
:0402A0008C98120024
:0C02A400D9CFE6FFE1CFD9FFF00E951690
:1002B0008316FE0EDB380F0B0F0B83128C9C8C9A6F
:1002C0000DD8F00E8316FE0EDB500F0B831206D8EE
:1002D0000F0E9512E552E7CFD9FF1200A0EC00F007
:0A02E0008C88A0EC00F08C9812004E
:0602EA00D9CFE6FFE1CFD1
:1002F000D9FFE6528C8C8C8AA0EC00F08C88A0ECA4
:1003000000F08338F00BF00BDF6E8C98A0EC00F05F
:100310008C88A0EC00F00F0E8314DF128C988C9A5E
:0E0320008C9CDF50E552E552E7CFD9FF12006A
:02032E00D9CF25
:10033000E6FFE1CFD9FFE6528C8C8C9AA0EC00F05E
:100340008C88A0EC00F08338F00BF00BDF6E8C98FB
:10035000A0EC00F08C88A0EC00F00F0E8314DF12EC
:100360008C988C9C7F0EDF14E552E552E7CFD9FFC5
:02037000120079
:0E037200D9CFE6FFE1CFD9FF14D80FE013EC8E
:1003800002F00009FCE10ED8E66E2FEC01F0E55218
:10039000FD0EDB2AFE0EF1E3DB2AEFD7E552E7CFB5
:1003A000D9FF1200FD0EDBCFF6FFFE0EDBCFF7FF0D
:0603B0000800F5501200E8
:0A03B600D9CFE6FFE1CFD9FF14D83C
:1003C0000FE013EC02F00009FCE10ED8E66E2FEC12
:1003D00001F0E552FD0EDB2AFE0EF1E3DB2AEFD73A
:1003E000E552E7CFD9FF1200FD0EDBCFE9FFFE0E8D
:0803F000DBCFEAFFEF50120021
:0803F800FF0EE350036EEF0E4F
:1004000001D0F30EE76EE72E03EF02F00C0E026E42
:10041000E76AE72E09EF02F0022E08EF02F0032E42
:0604200001EF02F01200E2
:0A0426008C8C8C9AA0EC00F08C88FE
:10043000A0EC00F083A602D003D8010C01D8000C78
:100440008C98A0EC00F08C88A0EC00F08C988C9C30
:02045000120098
:0E045200000EF36E00EE00F0060E01D8120050
:10046000EA6002D0EE6AFCD7F350E9601200EE6A4F
:02047000FCD7B7
:0E04720013EE81F023EE81F0F86A019C04EC99
:0E04800000F063EC02F0B2EC00F0FBD71200CB
:02048E00FF0E5F
:10049000E350036E1B0E00D001D0200EE76EE72E56
:0A04A000FED7032EFAD700D0120099
:0604AA00FF0EE350E84ED6
:1004B0001200000000D000D000D0E82EFAD71200C1
:0604C00048656C6C6F0042
:0204C600120022
:020000040030CA
:0100010022DC
:010003000EEE
:010006008178
:00000001FF
