:020000040000FA
:0600000082EF02F0120085
:020006000000F8
:08000800D9CFE6FFE1CFD9FFDB
:10001000F00E95168316FE0EDB508009E8380F0BA4
:100020000F0B83128C9C8C9A0DD8F00E8316FE0E4B
:10003000DB500F0B831206D80F0E9512E552E7CF57
:10004000D9FF120042EC00F08C8842EC00F08C9852
:0200500012009C
:0E005200FF0EE350056EEF0E01D0F30EE76EC9
:10006000E72E30EF00F00C0E046EE76AE72E36EF55
:1000700000F0042E35EF00F0052E2EEF00F01200F8
:040080006CEF02F02F
:0C008400060EE66E9EEC02F0E552120043
:10009000F00EE66E90EC02F0E5521200F60EE66EFF
:1000A00090EC02F0E5521200D9CFE6FFE1CFD9FF84
:1000B000070EE1265DEC02F004010B6B0C6B0401F2
:1000C000070ED8800B55000E0C5517E36CEC02F0B0
:1000D000E66ED9CF02F0DACF03F0025004010B250F
:1000E000E96E035004010C21EA6EE552E750EF6E11
:1000F00004010B2B000E0C23E2D7836A956A280EAD
:10010000E66E08EC01F0E55247EC02F0000901E070
:10011000FBD7E66A04EC00F0E552060EE66E9DECB5
:1001200001F0E55247EC02F0000901E0FBD70F0EA9
:10013000E66E9DEC01F0E55247EC02F0000901E0AB
:10014000FBD7D9CFE6FFDACFE6FF26EC02F0E55287
:10015000E55247EC02F0000901E0FBD70300070E6F
:10016000E15C02E2E16AE552E16EE552E7CFD9FFD8
:0201700012007B
:0E017200060EF66E000EF76E000EF86E04011B
:100180000900F550066F0900F550076F03E1066797
:1001900001D03DD00900F550016F0900F550026F04
:1001A0000900F550036F09000900F550E96E0900D8
:1001B000F550EA6E090009000900F550046F0900C6
:1001C000F550056F09000900F6CF08F4F7CF09F4E0
:1001D000F8CF0AF401C4F6FF02C4F7FF03C4F8FF26
:1001E0000401045302E1055307E00900F550EE6EE7
:1001F0000407F8E20507F9D708C4F6FF09C4F7FFBA
:100200000AC4F8FF04010607000E075BBFD71200FF
:10021000D9CFE6FFE1CFD9FFF00E83169516959C56
:10022000959A95988C9C8C9A8C9848EC00F0300E9E
:1002300033D8050EE66E29EC00F0E552300E2CD8CE
:10024000010EE66E29EC00F0E552320E25D829D8D1
:10025000FEE127D8FEE1FE0EDBCFE6FF9DEC01F0CC
:10026000E5521FD8FEE1080E17D81BD8FEE10F0E8D
:1002700013D817D8FEE1010E0FD813D8FEE1040EF3
:100280000BD80FD8FEE1800EE66E04EC00F0E552CC
:10029000E552E7CFD9FF1200E66E9DEC01F0E55282
:0A02A000120047EC02F00009120002
:0602AA00D9CFE6FFE1CF11
:1002B000D9FFF00E95168316FE0EDB504009E83884
:1002C0000F0B0F0B83128C9C8C9A0DD8F00E83169B
:1002D000FE0EDB500F0B831206D80F0E9512E5525F
:1002E000E7CFD9FF120042EC00F08C8842EC00F01E
:0402F0008C981200D4
:0C02F400D9CFE6FFE1CFD9FFF00E951640
:100300008316FE0EDB380F0B0F0B83128C8A8C9C2E
:100310000DD8F00E8316FE0EDB500F0B831206D89D
:100320000F0E9512E552E7CFD9FF120042EC00F014
:0A0330008C8842EC00F08C9812005B
:06033A00D9CFE6FFE1CF80
:10034000D9FFF00E95168316FE0EDB380F0B0F0B40
:1003500083128C9C8C9A0DD8F00E8316FE0EDB5007
:100360000F0B831206D80F0E9512E552E7CFD9FF77
:10037000120042EC00F08C8842EC00F08C981200E5
:10038000D9CFE6FFE1CFD9FFE6528C8C8C8A42ECC4
:1003900000F08C8842EC00F08338F00BF00BDF6E3D
:1003A0008C9842EC00F08C8842EC00F00F0E831425
:1003B000DF128C988C9A8C9CDF50E552E552E7CF87
:0403C000D9FF12004F
:0C03C400D9CFE6FFE1CFD9FFE6528C8CC8
:1003D0008C9A42EC00F08C8842EC00F08338F00BF1
:1003E000F00BDF6E8C9842EC00F08C8842EC00F051
:1003F0000F0E8314DF128C988C9C7F0EDF14E55255
:08040000E552E7CFD9FF12001D
:08040800D9CFE6FFE1CFD9FFD7
:1004100014D80FE047EC02F00009FCE10ED8E66EBC
:100420007AEC01F0E552FD0EDB2AFE0EF1E3DB2A49
:10043000EFD7E552E7CFD9FF1200FD0EDBCFF6FF75
:0C044000FE0EDBCFF7FF0800F5501200A5
:04044C00D9CFE6FF1F
:10045000E1CFD9FF14D80FE047EC02F00009FCE12E
:100460000ED8E66E7AEC01F0E552FD0EDB2AFE0EA8
:10047000F1E3DB2AEFD7E552E7CFD9FF1200FD0EFB
:0E048000DBCFE9FFFE0EDBCFEAFFEF501200EC
:02048E008C8C54
:100490008C9A42EC00F08C8842EC00F083A602D0EB
:1004A00003D8010C01D8000C8C9842EC00F08C8829
:0A04B00042EC00F08C988C9C1200C6
:0604BA00500E906F750E5C
:1004C000916F730E926F680E936F700E946F6F0E34
:1004D000956F700E966F120000EE90F00B51E926AA
:0404E000EF501200C7
:0C04E400000EF36E00EE00F0060E01D8D2
:1004F0001200EA6002D0EE6AFCD7F350E960120005
:04050000EE6AFCD7CC
:0C05040013EE81F023EE81F0F86A019CF8
:10051000B9EC00F0A9EC02F054EC00F0FBD71200AB
:10052000FF0EE350056E1B0E00D001D0200EE76ECB
:0C053000E72EFED7052EFAD700D01200EF
:04053C00FF0EE3507B
:10054000E84E1200000000D000D000D0E82EFAD70C
:02055000120097
:02055200120095
:00000001FF
