:020000040000FA
:0600000089EF00F0120080
:020006000000F8
:08000800060EF66E000EF76E05
:10001000000EF86E04010900F550866F0900F550D6
:10002000876F03E1866701D03DD00900F550816FED
:100030000900F550826F0900F550836F090009002F
:10004000F550E96E0900F550EA6E09000900090053
:10005000F550846F0900F550856F09000900F6CF4F
:1000600088F4F7CF89F4F8CF8AF481C4F6FF82C40C
:10007000F7FF83C4F8FF0401845302E1855307E0CE
:100080000900F550EE6E8407F8E28507F9D788C4B9
:10009000F6FF89C4F7FF8AC4F8FF04018607000E43
:0600A000875BBFD71200D0
:0A00A600D9CFE6FFE1CFD9FF020E2B
:1000B000E126010EDE6EDD6A936ADECF02F0DDCF4F
:1000C00003F0033404E202500F08000E035407E368
:1000D000DF50816EDF2A010EF0E3DB2AEED7020E3D
:1000E000E15C02E2E16AE552E16EE552E7CFD9FF59
:0200F0001200FC
:0E00F200000EF36E00EE00F0060E01D81200B4
:10010000EA6002D0EE6AFCD7F350E9601200EE6AB2
:02011000FCD71A
:0E01120013EE81F023EE81F0F86A019C04ECFC
:0E01200000F097EC00F053EC00F0FBD712005B
:02012E001200BD
:020000040030CA
:0100010022DC
:010003000EEE
:010006008178
:00000001FF
