:020000040000FA
:060000007DEF02F012008A
:0A00060001007E000000120400005B
:0400100002000000EA
:0C001400D9CFE6FFE1CFD9FF0F0E951603
:100020008316FE0EDB508009F00B83128C948C92A9
:100030000ED80F0E8316FE0EDB38F00BF00B83127A
:1000400006D8F00E9512E552E7CFD9FF120042EC28
:0C00500000F08C8042EC00F08C9012005C
:04005C00000EF36E31
:1000600000EE00F0060E01D81200EA6002D0EE6A3F
:0C007000FCD7F350E9601200EE6AFCD7E8
:02007C00120070
:02007E00000080
:0400800077EF02F024
:0C008400020EE66E99EC02F0E55212004C
:1000900060D8A9EF00F0500E57D8500E55D8500E2A
:1000A000A4EF00F068EC02F00401126B136B040182
:1000B000070ED8801255000E135513E377EC02F0AB
:1000C000E66E0B0E04011225E96E040E04011321E5
:1000D000EA6EE552E750EF6E0401122B000E132377
:1000E000E6D7836A956A280EE66EFDEC00F0E552CD
:1000F00052EC02F0000901E0FBD7E66A0AEC00F0DE
:10010000E552060EE66E91EC01F0E55252EC02F07B
:10011000000901E0FBD70F0EE66E91EC01F0E5520D
:1001200052EC02F0000901E0FBD70B0EE66E040E64
:10013000E66E1AEC02F0E552E55252EC02F00009CC
:1001400001E0FBD703001200E66E8BEC02F0E552F3
:0C0150001200A00EF9DFA00EA4EF00F0DA
:04015C00060EF66E27
:10016000000EF76E000EF86E04010900F550066FE0
:100170000900F550076F03E1066701D03DD0090083
:10018000F550016F0900F550026F0900F550036F3B
:1001900009000900F550E96E0900F550EA6E090002
:1001A00009000900F550046F0900F550056F0900BA
:1001B0000900F6CF08F4F7CF09F4F8CF0AF401C428
:1001C000F6FF02C4F7FF03C4F8FF0401045302E181
:1001D000055307E00900F550EE6E0407F8E2050745
:1001E000F9D708C4F6FF09C4F7FF0AC4F8FF0401F1
:0A01F0000607000E075BBFD71200E0
:0601FA00D9CFE6FFE1CFC2
:10020000D9FF0F0E831695169594959295908C9420
:100210008C928C9048EC00F0300E33D8050EE66ED0
:100220003BEC02F0E552300E2CD8010EE66E3BECB2
:1002300002F0E552320E25D829D8FEE127D8FEE19A
:10024000FE0EDBCFE6FF91EC01F0E5521FD8FEE198
:10025000080E17D81BD8FEE10F0E13D817D8FEE1F1
:10026000010E0FD813D8FEE1040E0BD80FD8FEE113
:10027000800EE66E0AEC00F0E552E552E7CFD9FFBA
:100280001200E66E91EC01F0E552120052EC02F021
:04029000000912004F
:0C029400D9CFE6FFE1CFD9FF0F0E951681
:1002A0008316FE0EDB504009F00B83128C948C9267
:1002B0000ED80F0E8316FE0EDB38F00BF00B8312F8
:1002C00006D8F00E9512E552E7CFD9FF120042ECA6
:0C02D00000F08C8042EC00F08C901200DA
:0402DC00D9CFE6FF91
:1002E000E1CFD9FF0F0E95168316FE0EDB50F00BF3
:1002F00083128C828C940ED80F0E8316FE0EDB3880
:10030000F00BF00B831206D8F00E9512E552E7CFF2
:10031000D9FF120042EC00F08C8042EC00F08C908F
:020320001200C9
:0E032200D9CFE6FFE1CFD9FF0F0E9516831657
:10033000FE0EDB50F00B83128C948C920ED80F0EB5
:100340008316FE0EDB38F00BF00B831206D8F00E8E
:100350009512E552E7CFD9FF120042EC00F08C80F5
:0803600042EC00F08C90120049
:08036800D9CFE6FFE1CFD9FF78
:10037000E6528C848C8242EC00F08C8042EC00F0DF
:10038000F00E8314DF6E8C9042EC00F08C8042EC17
:1003900000F083380F0B0F0BDF128C908C928C9433
:0C03A000DF50E552E552E7CFD9FF120014
:0403AC00D9CFE6FFC0
:1003B000E1CFD9FFE6528C848C9242EC00F08C8025
:1003C00042EC00F0F00E8314DF6E8C9042EC00F0F3
:1003D0008C8042EC00F083380F0B0F0BDF128C90F7
:1003E0008C947F0EDF14E552E552E7CFD9FF12005F
:1003F000D9CFE6FFE1CFD9FF14D80FE052EC02F0DD
:100400000009FCE10ED8E66E6EEC01F0E552FD0E3F
:10041000DB2AFE0EF1E3DB2AEFD7E552E7CFD9FF67
:100420001200FD0EDBCFF6FFFE0EDBCFF7FF08005C
:04043000F550120071
:0C043400D9CFE6FFE1CFD9FF14D80FE0CC
:1004400052EC02F00009FCE10ED8E66E6EEC01F011
:10045000E552FD0EDB2AFE0EF1E3DB2AEFD7E55273
:10046000E7CFD9FF1200FD0EDBCFE9FFFE0EDBCF99
:06047000EAFFEF5012004C
:0A047600FF0EE350036EEF0E01D0FD
:10048000F30EE76EE72E42EF02F00C0E026EE76A03
:10049000E72E48EF02F0022E47EF02F0032E40EF66
:0404A00002F0120054
:0C04A4008C848C9242EC00F08C8042ECC6
:1004B00000F083AE02D003D8010C01D8000C8C9060
:1004C00042EC00F08C8042EC00F08C908C94120096
:1004D000500E906F750E916F730E926F680E936F42
:1004E000700E946F6F0E956F700E966F120000EE87
:0A04F00090F01251E926EF501200BF
:0604FA0013EE81F023EE79
:1005000081F0F86A019CAEEC00F03EEC00F052EC99
:0605100000F0FBD7120011
:0A051600FF0EE350036E1B0E00D031
:1005200001D0200EE76EE72EFED7032EFAD700D0BB
:020530001200B7
:0E053200FF0EE350E84E1200000000D000D093
:0805400000D0E82EFAD71200EA
:00000001FF
