:020000040000FA
:0600000037EF02F01200D0
:020006000000F8
:08000800060EF66E000EF76E05
:10001000000EF86E04010900F550066F0900F55056
:10002000076F03E1066701D03DD00900F550016F6D
:100030000900F550026F0900F550036F090009002F
:10004000F550E96E0900F550EA6E09000900090053
:10005000F550046F0900F550056F09000900F6CF4F
:1000600008F4F7CF09F4F8CF0AF401C4F6FF02C48C
:10007000F7FF03C4F8FF0401045302E1055307E04E
:100080000900F550EE6E0407F8E20507F9D708C439
:10009000F6FF09C4F7FF0AC4F8FF04010607000EC3
:0600A000075BBFD7120050
:0A00A600D9CFE6FFE1CFD9FF0F0E1E
:1000B000831695169594959295908C948C928C902D
:1000C000A6EC00F0300E33D8050EE66EFAEC01F027
:1000D000E552300E2CD8010EE66EFAEC01F0E55236
:1000E000320E25D829D8FEE127D8FEE1FE0EDBCF5F
:1000F000E6FF50EC01F0E5521FD8FEE1080E17D8DC
:100100001BD8FEE10F0E13D817D8FEE1010E0FD851
:1001100013D8FEE1040E0BD80FD8FEE1800EE66E78
:10012000E5EC00F0E552E552E7CFD9FF1200E66EAC
:1001300050EC01F0E552120011EC02F0000912003F
:10014000060EE66E53EC02F0E5521200F00EE66E7B
:1001500045EC02F0E5521200F60EE66E45EC02F0B8
:10016000E5521200836A956A280EE66E53EC00F0A1
:10017000E55211EC02F0000901E0FBD7E66AE5EC7C
:1001800000F0E552060EE66E50EC01F0E55211EC7F
:1001900002F0000901E0FBD70F0EE66E50EC01F013
:1001A000E55211EC02F0000901E0FBD7BC0EE66E4F
:1001B000040EE66EB7EC01F0E552E55211EC02F0E8
:0A01C000000901E0FBD70300120064
:0601CA00D9CFE6FFE1CFF2
:1001D000D9FF0F0E95168316FE0EDB508009F00B2B
:1001E00083128C948C920ED80F0E8316FE0EDB3881
:1001F000F00BF00B831206D8F00E9512E552E7CF04
:10020000D9FF1200A0EC00F08C80A0EC00F08C90E4
:020210001200DA
:0E021200D9CFE6FFE1CFD9FF0F0E9516831668
:10022000FE0EDB504009F00B83128C948C920ED89A
:100230000F0E8316FE0EDB38F00BF00B831206D880
:10024000F00E9512E552E7CFD9FF1200A0EC00F0B6
:0A0250008C80A0EC00F08C901200EE
:06025A00D9CFE6FFE1CF61
:10026000D9FF0F0E95168316FE0EDB50F00B83128E
:100270008C828C940ED80F0E8316FE0EDB38F00B9A
:10028000F00B831206D8F00E9512E552E7CFD9FF96
:100290001200A0EC00F08C80A0EC00F08C9012001A
:1002A000D9CFE6FFE1CFD9FF0F0E95168316FE0ECC
:1002B000DB50F00B83128C948C920ED80F0E8316A9
:1002C000FE0EDB38F00BF00B831206D8F00E951201
:1002D000E552E7CFD9FF1200A0EC00F08C80A0EC33
:0602E00000F08C901200FA
:0A02E600D9CFE6FFE1CFD9FFE652C1
:1002F0008C848C82A0EC00F08C80A0EC00F0F00EDE
:100300008314DF6E8C90A0EC00F08C80A0EC00F0E9
:1003100083380F0B0F0BDF128C908C928C94DF5074
:0A032000E552E552E7CFD9FF1200C5
:06032A00D9CFE6FFE1CF90
:10033000D9FFE6528C848C92A0EC00F08C80A0EC6B
:1003400000F0F00E8314DF6E8C90A0EC00F08C8037
:10035000A0EC00F083380F0B0F0BDF128C908C9405
:0E0360007F0EDF14E552E552E7CFD9FF120001
:02036E00D9CFE5
:10037000E6FFE1CFD9FF14D80FE011EC02F000093D
:10038000FCE10ED8E66E2DEC01F0E552FD0EDB2A05
:10039000FE0EF1E3DB2AEFD7E552E7CFD9FF1200DB
:1003A000FD0EDBCFF6FFFE0EDBCFF7FF0800F550AA
:0203B000120039
:0E03B200D9CFE6FFE1CFD9FF14D80FE011EC50
:1003C00002F00009FCE10ED8E66E2DEC01F0E552DA
:1003D000FD0EDB2AFE0EF1E3DB2AEFD7E552E7CF75
:1003E000D9FF1200FD0EDBCFE9FFFE0EDBCFEAFFE7
:0403F000EF501200B8
:0C03F400FF0EE350036EEF0E01D0F30E7D
:10040000E76EE72E01EF02F00C0E026EE76AE72EB0
:1004100007EF02F0022E06EF02F0032EFFEF01F0CD
:020420001200C8
:0E0422008C848C92A0EC00F08C80A0EC00F09A
:1004300083AE02D003D8010C01D8000C8C90A0EC44
:0E04400000F08C80A0EC00F08C908C941200E8
:02044E00000E9E
:10045000F36E00EE00F0060E01D81200EA6002D042
:0E046000EE6AFCD7F350E9601200EE6AFCD79A
:02046E0013EE8B
:1004700081F023EE81F0F86A019C04EC00F061EC5D
:0A04800002F0B2EC00F0FBD712000E
:06048A00FF0EE350036EBB
:100490001B0E00D001D0200EE76EE72EFED7032EF4
:0604A000FAD700D01200A3
:0A04A600FF0EE350E84E12000000C4
:0C04B00000D000D000D0E82EFAD71200D7
:0404BC0048656C6CB7
:0204C0006F00CB
:0204C200120026
:020000040030CA
:0100010022DC
:010003000EEE
:010006008178
:00000001FF
