:020000040000FA
:0600000032EF00F01200D7
:020006000000F8
:08000800D9CFE6FFE1CFD9FFDB
:10001000070EE12691EC00F004010B6B0C6B070E50
:10002000D8800B55000E0C5511E3A0EC00F0E66EE5
:10003000900E04010B25E96E000E0C21EA6EE552CC
:10004000E750EF6E0B2B000E0C23E9D74E0EDF6E40
:10005000070EE15C02E2E16AE552E16EE552E7CFAC
:04006000D9FF1200B2
:0C00640013EE81F023EE81F0F86A019C9D
:1000700042EC00F0B6EC00F004EC00F0FBD712000C
:04008000A0EF00F0FD
:0C008400060EF66E000EF76E000EF86E11
:1000900004010900F550066F0900F550076F03E1F0
:1000A000066701D03DD00900F550016F0900F550F9
:1000B000026F0900F550036F09000900F550E96E61
:1000C0000900F550EA6E090009000900F550046FB7
:1000D0000900F550056F09000900F6CF08F4F7CFC5
:1000E00009F4F8CF0AF401C4F6FF02C4F7FF03C411
:1000F000F8FF0401045302E1055307E00900F5503D
:10010000EE6E0407F8E20507F9D708C4F6FF09C444
:10011000F7FF0AC4F8FF04010607000E075BBFD70C
:020120001200CB
:0E012200500E906F750E916F730E926F680EF7
:10013000936F700E946F6F0E956F700E956F120027
:0C01400000EE90F00B51E926EF50120089
:04014C00000EF36E40
:1001500000EE00F0060E01D81200EA6002D0EE6A4E
:0C016000FCD7F350E9601200EE6AFCD7F7
:02016C0012007F
:00000001FF
